:030000000202A653
:0C02A600787FE4F6D8FD75811702024352
:100295003F065B4F666D7D077F6F00000000000025
:0102A5000058
:0B02B200EF1FAC0670011E4C70F6221E
:100003008F178E168D158C147B807A9679987800CD
:1000130012012FE47B0AFAF9F812012FAF038F08BC
:100023007B407A42790F7800AF17AE16AD15AC144A
:1000330012012FE47B0AFAF9F812012FAF038F099B
:100043007BA07A8679017800AF17AE16AD15AC1494
:1000530012012FE47B0AFAF9F812012FAF038F0A7A
:10006300E47B107A27F9F8AF17AE16AD15AC14126E
:10007300012FE47B0AFAF9F812012FAF038F0BE487
:100083007BE87A03F9F8AF17AE16AD15AC1412017D
:100093002FE47B0AFAF9F812012FAF038F0CE47BEC
:1000A30064FAF9F8AF17AE16AD15AC1412012FE4CC
:1000B3007B0AFAF9F812012FAF038F0DE47B0AFADA
:1000C300F9F8AF17AE16AD15AC1412012FE47B0A85
:1000D300FAF9F812012FAF038F0EE47B0AFAF9F84D
:1000E300AF17AE16AD15AC1412012FAF038F0F224D
:1001D200E4FDEDB40800504D9001E1F828287302C7
:1001E20001F90201FD0202050202090202110202E4
:1001F2001502021D020221C2A28002D2A2C2A3C221
:10020200A48022C2A28002D2A2D2A3C2A48016C219
:10021200A28002D2A2C2A3D2A4800AC2A28002D227
:10022200A2D2A3D2A474082DF8E690029593F58089
:100232007F647E001202B2E4F5800DED64087092D4
:010242002299
:10024300E475137E75120FF511F510AF13AE12ADF1
:1002530011AC10120003E4FBFA1201D20BBB000134
:100263000AEB64324A70F2E5132401F513E4351204
:10027300F512E43511F511E43510F510E47F807EB5
:100283000FFDFCAB13AA12A911A810C31201C17070
:02029300BA228D
:1000F30075F008758200EF2FFFEE33FECD33CDCCC4
:1001030033CCC58233C5829BED9AEC99E582984046
:100113000CF582EE9BFEED9AFDEC99FC0FD5F0D623
:10012300E4CEFBE4CDFAE4CCF9A88222B800C1B94D
:100133000059BA002DEC8BF084CFCECDFCE5F0CB8B
:10014300F97818EF2FFFEE33FEED33FDEC33FCEBC4
:1001530033FB10D703994004EB99FB0FD8E5E4F97F
:10016300FA227818EF2FFFEE33FEED33FDEC33FC6C
:10017300C933C910D7059BE99A4007EC9BFCE99A60
:10018300F90FD8E0E4C9FAE4CCFB2275F010EF2FA5
:10019300FFEE33FEED33FDCC33CCC833C810D707A5
:1001A3009BEC9AE899400AED9BFDEC9AFCE899F8E0
:0E01B3000FD5F0DAE4CDFBE4CCFAE4C8F92273
:1001C100EB9FF5F0EA9E42F0E99D42F0E89C45F094
:0101D100220B
:00000001FF
